:020000040000FA
:0600000057EF13F012009F
:020006001200E6
:0600080016EF00F01200EB
:02000E001200DE
:0600180078EF00F0120079
:02001E000100DF
:0C002000F7260000C801000010000000DE
:04002C00DACFE4FF44
:10003000E2CFDAFFE9CFE4FFEACFE4FFF6CFE4FF57
:10004000F7CFE4FFF5CFE4FFF3CFE4FFF4CFE4FF15
:10005000FACFE4FF00EE00F0140EE80403E3EECF65
:10006000E4FFFBD700EE25F00A0EE80403E3EECF31
:10007000E4FFFBD7E6529EAA02D0FCEC06F0F2A009
:1000800013D08150800B02E0000E01D0010E2F6EC4
:100090008150400B02E0000E01D0010E2F1003E052
:1000A000F296CD80F28CF290E55200EE2EF00A0E20
:1000B000E80403E3E5CFEDFFFBD700EE13F0140EE9
:1000C000E80403E3E5CFEDFFFBD7E5CFFAFFE5CF8B
:1000D000F4FFE5CFF3FFE5CFF5FFE5CFF7FFE5CF81
:1000E000F6FFE5CFEAFFE5CFE9FFE5CFDAFF110044
:1000F000D8CFE4FFE0CFE4FFE46EDACFE4FFE2CF55
:10010000DAFFE9CFE4FFEACFE4FFF6CFE4FFF7CF71
:10011000E4FFF5CFE4FFF3CFE4FFF4CFE4FFFACF41
:10012000E4FF00EE00F0140EE80403E3EECFE4FF7A
:10013000FBD700EE25F00A0EE80403E3EECFE4FF60
:10014000FBD7E652D9CFE6FFE1CFD9FF020EE12679
:100150009EA020D29E90C10ECF6E800ECE6E81509A
:10016000400B400A01E0010E146E0101D651E82453
:100170001410D66F8150800B800A01E0010E146EBE
:10018000D751E8241410D76F7F0ED75D02E0000E20
:1001900001D0010E146E7F0ED65D02E0000E01D07C
:1001A000010E141001E1B4D0F28CF290F286D26B01
:1001B000D36BD46BD56B8950200B02E0000E01D0BD
:1001C000010E146E8950100B02E0000E01D0010EDA
:1001D000141415E081BC09D0010EE66E640EE66EC3
:1001E000E66A45DBE552E552E55281BE91D0010E4B
:1001F000E66E000EE66EE66A3ADBE55287D089A825
:100200003FD0010EE66EE66AD2EC12F0E552E552FE
:100210001C6E076E30EC0EF005C018F006C019F029
:1002200007C01AF008C01BF005C00AF006C00BF0AA
:1002300007C00CF008C00DF0CEC105F0CFC106F02C
:10024000D0C107F0D1C108F0EDEC0EF005C014F0FC
:1002500006C015F007C016F008C017F00A6A0B6A4E
:10026000C80E0C6E420E0D6E40EC0FF0ADEC0FF0B0
:100270000101C8510624C86FC9510720C96F3CD07D
:10028000020EE66EE66AD2EC12F0E552E5521C6E02
:10029000076E30EC0EF005C018F006C019F007C06C
:1002A0001AF008C01BF005C00AF006C00BF007C02A
:1002B0000CF008C00DF0CEC105F0CFC106F0D0C1E2
:1002C00007F0D1C108F0EDEC0EF005C014F006C047
:1002D00015F007C016F008C017F00A6A0B6AC80EBE
:1002E0000C6E420E0D6E40EC0FF0ADEC0FF00650B0
:1002F0000101C85F0750C95B8998899A0EEC08F024
:10030000C8C1E6FF010EE66E51EC07F0E552E5527A
:10031000FF0E0101D75D02E0000E01D0010E146E48
:10032000FF0ED65D02E0000E01D0010E141018E0A1
:10033000D2C105F0D3C106F0D4C107F0D5C108F091
:100340000A6A0B6A800E0C6E3F0E0D6E57EC0EF0B3
:1003500005C0D2F106C0D3F107C0D4F108C0D5F171
:10036000FE0E0101D75D02E0000E01D0010E146EF9
:10037000FE0ED65D02E0000E01D0010E141001E168
:1003800009D1CD90F28CF290F2867D0EDE6EDD6AA0
:10039000000EDFCF06F0010EDBCF07F043EC0EF0CE
:1003A00005C014F006C015F007C016F008C017F01D
:1003B00005C00AF006C00BF007C00CF008C00DF035
:1003C000D2C105F0D3C106F0D4C107F0D5C108F001
:1003D000DCEC0FF0010A01E0DDD089A869D06F0ED6
:1003E0000A6E120E0B6E030E0C6E410E0D6ED2C114
:1003F00005F0D3C106F0D4C107F0D5C108F040EC38
:100400000FF005C01CF006C01DF007C01EF008C0AC
:100410001FF00A6A0B6A7A0E0C6E440E0D6EEDEC3C
:100420000EF005C018F006C019F007C01AF008C099
:100430001BF0010EE66EE66AD2EC12F0E552E552D0
:10044000246E076E30EC0EF005C020F006C021F0DF
:1004500007C022F008C023F005C00AF006C00BF068
:1004600007C00CF008C00DF018C005F019C006F068
:100470001AC007F01BC008F0EDEC0EF005C014F038
:1004800006C015F007C016F008C017F00A6A0B6A1C
:10049000C80E0C6E420E0D6E40EC0FF0ADEC0FF07E
:1004A0000101C8510624C86FC9510720C96F66D021
:1004B0006F0E0A6E120E0B6E030E0C6E410E0D6E59
:1004C000D2C105F0D3C106F0D4C107F0D5C108F000
:1004D00040EC0FF005C01CF006C01DF007C01EF078
:1004E00008C01FF00A6A0B6A7A0E0C6E440E0D6E7D
:1004F000EDEC0EF005C018F006C019F007C01AF0B8
:1005000008C01BF0020EE66EE66AD2EC12F0E5526D
:10051000E552246E076E30EC0EF005C020F006C0E8
:1005200021F007C022F008C023F005C00AF006C081
:100530000BF007C00CF008C00DF018C005F019C092
:1005400006F01AC007F01BC008F0EDEC0EF005C075
:1005500014F006C015F007C016F008C017F00A6ABC
:100560000B6AC80E0C6E420E0D6E40EC0FF0ADEC37
:100570000FF006500101C85F0750C95B8998899A3E
:100580000EEC08F0C8C1E6FF010EE66E51EC07F074
:10059000E552E552020EE15C02E2E16AE552E16EEB
:1005A000E552E7CFD9FFE55200EE2EF00A0EE8043F
:1005B00003E3E5CFEDFFFBD700EE13F0140EE804E4
:1005C00003E3E5CFEDFFFBD7E5CFFAFFE5CFF4FF7F
:1005D000E5CFF3FFE5CFF5FFE5CFF7FFE5CFF6FF7A
:1005E000E5CFEAFFE5CFE9FFE5CFDAFFE550E5CF5C
:1005F000E0FFE5CFD8FF10005CDB7ADB010EE66E92
:10060000E66AD2EC12F0E552E552FF080AE10E0E5E
:10061000E66E010EE66EE66A48EC12F0E552E5522F
:10062000E552020EE66EE66AD2EC12F0E552E552B1
:10063000FF080AE10E0EE66E020EE66EE66A48EC70
:1006400012F0E552E552E552030EE66EE66AD2EC90
:1006500012F0E552E552FF080AE1020EE66E030EC3
:10066000E66EE66A48EC12F0E552E552E5524EDBE2
:1006700089860300FED71200810E0101035D14E19B
:1006800004C1CAF105C1CBF108C125F0266A25BE17
:100690002668010E251801E1265001E0120008C16C
:1006A000E6FF03D8E55212001200D9CFE6FFE1CFF2
:1006B000D9FFF28E09C125F0266A25BE2668040EF0
:1006C000251801E1265001E1BBD0030E251801E1F8
:1006D000265001E1A6D0020E251801E126501AE0AD
:1006E000010E251801E1265007E0255001E0BBD09E
:1006F000265001E0B8D08FD0FE0EDBCFE6FF0AC156
:1007000025F0266A25BE266825C0E6FF26C0E6FF3E
:10071000AED894D089A83FD0010EE66EE66AD2EC3E
:1007200012F0E552E5522D6E076E30EC0EF005C06A
:1007300029F006C02AF007C02BF008C02CF005C035
:100740000AF006C00BF007C00CF008C00DF0CEC1D7
:1007500005F0CFC106F0D0C107F0D1C108F0EDEC33
:100760000EF005C025F006C026F007C027F008C02F
:1007700028F00A6A0B6AC80E0C6E420E0D6E40EC31
:100780000FF0ADEC0FF00101C8510624C86FC9513C
:100790000720C96F3CD0020EE66EE66AD2EC12F07A
:1007A000E552E5522D6E076E30EC0EF005C029F0D3
:1007B00006C02AF007C02BF008C02CF005C00AF0D4
:1007C00006C00BF007C00CF008C00DF0CEC105F05C
:1007D000CFC106F0D0C107F0D1C108F0EDEC0EF0AA
:1007E00005C025F006C026F007C027F008C028F095
:1007F0000A6A0B6AC80E0C6E420E0D6E40EC0FF0CA
:10080000ADEC0FF006500101C85F0750C95B899835
:10081000899A0EEC08F0C8C1E6FFFE0EDBCFE6FFBA
:100820001FD00BC1E6FF0AC125F0266A25BE266847
:1008300025C0E6FF26C0E6FF48EC12F0E55211D0D5
:100840000AC125F0266A25BE266825C0E6FF26C017
:10085000E6FFD2EC12F0E552E552E66E0AC1E6FF81
:1008600020DBE552E552E552E7CFD9FF1200D9CFA0
:10087000E6FFE1CFD9FF040EE126D950FD0FE96E66
:10088000FF0EDA20EA6E640EEE184FE1ED504DE1F6
:10089000010EE66EE66AD2EC12F0E552E552296EE0
:1008A000076E30EC0EF005C025F006C026F007C03C
:1008B00027F008C028F005C0E6FF06C0E6FF07C025
:1008C000E6FF08C0E6FF030EE66EE66AD2EC12F021
:1008D000E552E552E552E7CF28F0E552E7CF27F0A1
:1008E000E552E7CF26F0E552E7CF25F02E6E076EF2
:1008F00030EC0EF005C02AF006C02BF007C02CF03B
:1009000008C02DF005C00AF006C00BF007C00CF0BF
:1009100008C00DF025C005F026C006F027C007F07E
:1009200028C008F057EC0EF0EFD0D950FD0FE96E5B
:10093000FF0EDA20EA6EEE50ED104DE1020EE66E8B
:10094000E66AD2EC12F0E552E552296E076E30EC01
:100950000EF005C025F006C026F007C027F008C03D
:1009600028F005C0E6FF06C0E6FF07C0E6FF08C0A6
:10097000E6FF030EE66EE66AD2EC12F0E552E552AF
:10098000E552E7CF28F0E552E7CF27F0E552E7CF71
:1009900026F0E552E7CF25F02E6E076E30EC0EF014
:1009A00005C02AF006C02BF007C02CF008C02DF0BF
:1009B00005C00AF006C00BF007C00CF008C00DF02F
:1009C00025C005F026C006F027C007F028C008F0B3
:1009D00057EC0EF0F0D0FD0EDBCF06F0FE0EDBCFB5
:1009E00007F00101C851065C2D6EC95107582E6EE3
:1009F0002DC006F0076E43EC0EF005C029F006C0CE
:100A00002AF007C02BF008C02CF00A6A0B6AC80E47
:100A10000C6E420E0D6EEDEC0EF005C025F006C01A
:100A200026F007C027F008C028F005C0E6FF06C082
:100A3000E6FF07C0E6FF08C0E6FF7BEC12F0E552D8
:100A4000E552E552E55204C0DEFF05C0DEFF06C0F8
:100A5000DEFF07C0DDFFDD52DD52FD0EDBCF25F0EE
:100A6000FE0EDBCF26F00101C9512618E8AE02D0F8
:100A7000263404D02550C85D2650C95957E2D9CF35
:100A8000E9FFDACFEAFFEECF25F0EECF26F0EECF8A
:100A900027F0EFCF28F025C0E6FF26C0E6FF27C0ED
:100AA000E6FF28C0E6FF010EE66EE66AD2EC12F021
:100AB000E552E552E552E7CF28F0E552E7CF27F0BF
:100AC000E552E7CF26F0E552E7CF25F02D6E076E11
:100AD00030EC0EF005C029F006C02AF007C02BF05C
:100AE00008C02CF005C00AF006C00BF007C00CF0DF
:100AF00008C00DF025C005F026C006F027C007F09D
:100B000028C008F040EC0FF005C0DEFF06C0DEFF95
:100B100007C0DEFF08C0DDFFDD52DD52899A140EEA
:100B2000E66EF4EC12F0E552898856D0D9CFE9FF91
:100B3000DACFEAFFEECF25F0EECF26F0EECF27F0AA
:100B4000EFCF28F025C0E6FF26C0E6FF27C0E6FF6E
:100B500028C0E6FF020EE66EE66AD2EC12F0E5521D
:100B6000E552E552E7CF28F0E552E7CF27F0E5520E
:100B7000E7CF26F0E552E7CF25F02D6E076E30EC7B
:100B80000EF005C029F006C02AF007C02BF008C0FF
:100B90002CF005C00AF006C00BF007C00CF008C02E
:100BA0000DF025C005F026C006F027C007F028C0CC
:100BB00008F040EC0FF005C0DEFF06C0DEFF07C006
:100BC000DEFF08C0DDFFDD52DD528998140EE66EAF
:100BD000F4EC12F0E552898A0101CE6BCF6BD06B39
:100BE000D16BD9CFE9FFDACFEAFFEECF25F0EECF18
:100BF00026F0EECF27F0EFCF28F025C00AF026C070
:100C00000BF027C00CF028C00DF0CEC105F0CFC10D
:100C100006F0D0C107F0D1C108F0E5EC0FF0010AF1
:100C20002EE1140EE66EF4EC12F0E5528950200B22
:100C300002E0000E01D0010E256E8950100B02E07B
:100C4000000E01D0010E25142AE1CD0E0A6ECC0E45
:100C50000B6E0C6E3D0E0D6ECEC105F0CFC106F0D1
:100C6000D0C107F0D1C108F057EC0EF005C0CEF1AD
:100C700006C0CFF107C0D0F108C0D1F1B2D7899832
:100C8000899AFD0EDBCFC8F1FE0EDBCFC9F1C8C1DA
:100C9000E6FFFC0EDBCFE6FF04D9E552E552040E79
:100CA000E15C02E2E16AE552E16EE552E7CFD9FF8D
:100CB0001200D388D38AD38CD38E0F0EC16E806A74
:100CC000816A826A926AC00E936E946AF19EF28E75
:100CD000F28CD08E8150816EF290F180F286CD8EB2
:100CE0009E90C10ECF6E800ECE6E9F909D801200A2
:100CF000948C948EAC8AAB8EAB88AC84B886B06A88
:100D0000670EAF6E9F8A9D8A9E8812006FD8670E0D
:100D1000256E260E266E276A25C0E6FFE66E27C0E2
:100D2000E6FF640EE66E010EE66EF6EC10F0286E3D
:100D3000050EE15E285029D959D8630E256E260E7E
:100D4000266E276A25C0E6FFE66E27C0E6FF640E22
:100D5000E66E010EE66EF6EC10F0286E050EE15E12
:100D6000285013D943D8020EE66EE66A5B0E256E54
:100D7000260E266E276A25C0E6FFE66E27C0E6FF30
:100D8000640EE66E010EE66EF6EC10F0286E070EAD
:100D9000E15E2850FAD8540E256E260E266E276A7C
:100DA00025C0E6FFE66E27C0E6FF640EE66E010E84
:100DB000E66EF6EC10F0286E050EE15E2850E5D8E0
:100DC000440E256E260E266E276A25C0E6FFE66EC7
:100DD00027C0E6FF640EE66E010EE66EF6EC10F03C
:100DE000286E050EE15E2850C5EF07F0DC0EE66EBA
:100DF000F4EC12F0E5521200D9CFE6FFE1CFD9FFB3
:100E0000030EE1269E50200B42E09D50200B3FE058
:100E1000ABA202D0AB98AB88AE50DF6E7E0EDF5C2B
:100E200003E10101CC6BCD6B000E0101CC25E96E15
:100E3000010ECD21EA6EDFCFEFFF020ECDAF02D063
:100E4000D89003D0CC5D000ECD591DE301C127F031
:100E5000286A01C128F0276A02C129F02A6A29BE3E
:100E60002A6827502924256E28502A20266E030E32
:100E70002526000E26222550CC1905E12650CD1935
:100E800002E13CEC03F00101CC2B000ECD23030E5C
:100E9000E15C02E2E16AE552E16EE552E7CFD9FF9B
:100EA0001200D9CFE6FFE1CFD9FF040EE126010100
:100EB0007E0E646F656B070E666F010E676F686B61
:100EC000CAC169F1CBC16AF16B6BFE0EDBCF6CF16D
:100ED000FD0EDBCF6DF125686751682569256A2510
:100EE0006B256C256D25255C6E6F65C127F0286A22
:100EF00065C128F0276A66C129F02A6A29BE2A68D6
:100F000027502924256E28502A20266E040E2526D7
:100F1000000E2622020E25C0DBFF030E26C0DBFFDB
:100F2000DE6ADD6ADECF25F0DDCF26F0020EDBCFF4
:100F300027F0030EDBCF28F026502818E8AE02D0A9
:100F4000283404D02750255C2850265814E2ACA23F
:100F5000FED7DECFE9FFDDCFEAFF640EE926010E02
:100F6000EA22EF50E66E0BEC13F0E552DF2A010E99
:100F7000D9E3DB2AD7D7040EE15C02E2E16AE5524D
:100F8000E16EE552E7CFD9FF1200D9CFE6FFE1CFFE
:100F9000D9FF040EE126640EE66E010EE66E15EC36
:100FA00012F0E552E552020EF3CFDBFF030EF4CF51
:100FB000DBFFDE6ADD6ADECF25F0DDCF26F0020E34
:100FC000DBCF27F0030EDBCF28F026502818E8AE41
:100FD00002D0283404D02750255C2850265814E22B
:100FE000ACA2FED7DECFE9FFDDCFEAFF640EE92633
:100FF000010EEA22EF50E66E0BEC13F0E552DF2A09
:10100000010ED9E3DB2AD7D7040EE15C02E2E16AE4
:10101000E552E16EE552E7CFD9FF12000101800EE3
:10102000C91502E0C86BC96BC93508E2C85164082C
:0E103000000EC95503E2640EC86FC96B1200B2
:02103E005BEC69
:101040000DF0FB0EDBCFF3FFDB06F35000090AE0E7
:10105000A9EC0DF0FA0E14EC0EF0F3E1261CF1E110
:10106000010E01D0000E8AEF0DF05BEC0DF03B0E8F
:10107000E12402E3E168E652E16E010EDB6A020E52
:10108000DB6AF90EDBCFF6FFFA0EDBCFF7FFFB0EC4
:10109000DBCFF8FF0800F550DF6EDF5002E1AEEF66
:1010A0000CF0250EDF5C02E0A1EF0CF0030EDB6A12
:1010B000040EDB6A050EDB6A060EDB6A070EDB6ACE
:1010C000C3EC0CF02D0EDF5C0CE02B0EDF5C09E0B6
:1010D000200EDF5C06E0230EDF5C03E0300EDF5CF9
:1010E0001AE1DF50300A14E0130A0FE0030A0AE0A5
:1010F0000B0A05E0060AE4E1030EDB80E1D7030EEC
:10110000DB82DED7030EDB84DBD7030EDB86D8D78A
:10111000030EDB88D5D72A0EDF5C1BE1BFEC0CF099
:101120000DEC0DF010E0030EDB8006680768130E6F
:10113000DBCF0BF0140EDBCF0CF0C9EC10F0040E7B
:1011400004C0DBFF03D0130EF6EC0CF0C3EC0CF084
:101150000BD0090EDB6A64EC0DF003E0D8EC0DF067
:10116000FAD7090EF6EC0CF0030EDBB0DB982E0E6E
:10117000DF5C1BE1C3EC0CF02A0EDF5C0BE1BFEC83
:101180000CF00DEC0DF003E1130E48EC0DF0C3EC88
:101190000CF00BD0090EDB6A64EC0DF003E0D8EC28
:1011A0000DF0FAD7090E48EC0DF0680EDF5C07E190
:1011B000C3EC0CF0680EDF5C1DE1030E18D0740E5A
:1011C000DF5C17E07A0EDF5C14E0480EDF5C06E0BF
:1011D000540EDF5C03E05A0EDF5C02E1020E07D022
:1011E0006C0EDF5C03E06A0EDF5C04E1010E9BEC39
:1011F0000DF0C9DBDF506E0A01E17FD31E0A01E169
:1012000092D1200A01E18FD13F0A01E149D11A0AA6
:1012100001E146D10D0A01E143D1200A01E140D1AB
:101220003A0A01E13DD1200A01E13AD1260A01E161
:1012300035D10D0A01E132D11A0A01E1D9D0200AD3
:101240004AE0300A1FE0460A0EE0250A01E083D397
:10125000D950F90FE96EFF0EDA20EA6E010EEE5E4C
:10126000000EEE5AEE5AA9EC0DF0250EE66E95DB57
:1012700003E1261C01E169D3A5EC0DF001E26BD37B
:10128000DB2A69D3080EDB6A040EDB50010806E294
:10129000040EDB046DEC0DF0DB508BDB080EDB5035
:1012A00009E0030EDB50010B05E172DB01E04DD3D9
:1012B000080EDB6A64DBEFCFDFFF1DEC0EF003E10D
:1012C000261C01E142D3A5EC0DF001E3DB2A60DB33
:1012D00001E141D33AD3070EDB5002080FE1E9ECFC
:1012E0000DF0030EB0EC0DF00E0EEECFDBFF0F0E87
:1012F000EECFDBFF100EEECFDBFF20D0F70EDBCF03
:1013000028F0F80EDBCF29F0020E285E000E295AD5
:10131000F70E28C0DBFFF80E29C0DBFF28C0E9FF6D
:1013200029C0EAFFA0EC0DF0276A0E0E25C0DBFFF6
:101330000F0E26C0DBFF100E27C0DBFF0E0EDBCF2B
:10134000E6FF0F0EDBCFE6FF100EDBCFE6FF23EC50
:1013500012F0E552E552E552130E05C0DBFF140E04
:1013600006C0DBFF060EDB5005E0130EE4EC0DF0CB
:1013700001E26ADB08EC0EF002E2130E37DBCBEC85
:101380000DF006E0040EE4EC0DF002E2050E2EDB9B
:10139000030EDBB005D0FCDA01E0D7D2080EDB6A21
:1013A000090EDB6A0E0EDBCFF6FF0F0EDBCFF7FF69
:1013B000100EDBCFF8FF0800F550DF6EDF5014E0B1
:1013C0000EEC0EF011E21DEC0EF003E1261C01E123
:1013D000BCD2BBDB01E3DB2A090EDB2AD9500E0F9E
:1013E000E96E000ECBDBE7D7D3DA01E1B4D2ADD2A0
:1013F000C6DA110EEECFDBFF120EEDCFDBFF110EC2
:10140000DBCFE6FF120EDBCFE6FF15EC12F0E55264
:10141000E552130EF3CFDBFF140EF4CFDBFF060E05
:10142000DB5004E0130ED0DB01E20EDB08EC0EF023
:1014300002E2130EDBDAAFDB05E0040EC5DB02E2ED
:10144000050ED4DA030EDBB005D0A2DA01E07DD2BE
:10145000080EDB6A090EDB6A110EDBCFE9FF120E04
:10146000DBCFEAFFEFCFDFFFDF5014E0D7DB12E284
:10147000E4DB03E1261C01E168D267DB01E3DB2A40
:10148000090EDB2A110EDB2ADBCFE9FF120EE8E39F
:10149000DB2AE6D77DDA01E15ED257D2030EDB8E7E
:1014A000070EDB0410E195DB040E5ADB0A0EEECFCB
:1014B000DBFF0B0EEECFDBFF0C0EEECFDBFF0D0ED6
:1014C000EECFDBFF6CD0070EDB5003082CE1030EE0
:1014D000DBAE0DD0B2DA020E76DAEFCF25F0266A57
:1014E000276A286A25AE39D02668276835D0F70ED6
:1014F000DBCF26F0F80EDBCF27F0020E265E000EC3
:10150000275AF70E26C0DBFFF80E27C0DBFF26C0E8
:10151000E9FF27C0EAFFEFCF25F00A0E25C0DBFF69
:101520000B0EDB6A38D0070EDB50020809E1030E10
:10153000DBAE04D059DB27AE10D00ED055DB0DD07A
:10154000030EDBAE12D079DA020E3DDAF9DA276A41
:10155000286A26AE02D027682868E2DA0C0E27C077
:10156000DBFF0D0E28C0DBFF1AD0F70EDBCF27F014
:10157000F80EDBCF28F0020E275E000E285AF70E79
:1015800027C0DBFFF80E28C0DBFF27C0E9FF28C01B
:10159000EAFFD6DAC5DA0C0EDB6A0D0EDB6A060E40
:1015A000DB5005E1010EF36E050EF3CFDBFF150EE8
:1015B000DB6A160EDB6AD950370F256E000EDA2073
:1015C000266E390E25C0DBFF3A0E26C0DBFF380E33
:1015D000DB6A080EDB6A0A0EAEDADF50780A12E028
:1015E000200A10E0280A0CE0200A0AE03F0A06E080
:1015F0000D0A02E0200A08E1020E05D0080E03D011
:10160000080EDF26100E97DA030EDBBE02D0DB9247
:10161000DB94DB50800B24E08ADAD890030EEB5089
:10162000000A08E6000EEE5C000EEE58000EEE58C2
:10163000000EEE5815E213DA09680A680B680C68A8
:10164000DDEC11F00A0E00C0DBFF0B0E01C0DBFF6A
:101650000C0E02C0DBFF0D0E03C0DBFF2D0E08D009
:10166000030EDBA202D02B0E03D0DBA408D0200E89
:10167000F36E170EF3CFDBFF150EDB2A02D0170E29
:10168000DB6A050EDB5003E1B7D901E189D0E60E34
:10169000256E260E266E000E276E070EDBCF28F075
:1016A000296A2A6A2B6A28C009F029C00AF02AC0D0
:1016B0000BF02BC00CF0D3D9AEEC12F02550002467
:1016C000F36E26500120F46E27500220F86EF4CFFE
:1016D000F7FFF3CFF6FF0800090EF5CFDBFF580E3A
:1016E000DF5C0FE1610EF36E090E7BD90AE3200E79
:1016F000256E090EDBCFE7FF2550E75E090EE7CF29
:10170000DBFF070EDBCF25F0266A276A286A0FDA8F
:1017100025C009F026C00AF027C00BF028C00CF045
:10172000EECF04F0EECF05F0EECF06F0EFCF07F0EE
:10173000AEEC12F007C0EDFF06C0EDFF05C0EDFFF7
:1017400004C0EFFF390EDBCFE9FFDB063A0EDBCF3B
:10175000EAFF01E2DB06090EDBCFEFFF150EDB2A05
:101760004BD995E1030EDBA61DD06F0EDF5C06E1C1
:10177000C1D918E3150EDB285BDA14D0780EDF5CD4
:1017800009E0580EDF5C06E0620EDF5C03E0420E0B
:10179000DF5C08E1020EF36E160EF3CFDBFF02D022
:1017A000150EDB6A030EDB50100B0EE0040EDBCFD0
:1017B00025F0050EDB50D880255406E2060EDB50DE
:1017C00003E1040EDB5034DA95D90AE2050EDBCFD3
:1017D000E7FF150EDB50E75E050EE7CFDBFF02D01B
:1017E000050EDB6A040EDBCF25F0160E45D9D88036
:1017F000255414E2160EDBCFE6FF150EDBCFE6FF15
:10180000040EDBCFE6FF050EDB50E552E75CE55248
:10181000D880E754E552D880E7545FD9030EDB50F7
:10182000010B0BE1080EDB5008E0B2D801E08DD0CF
:10183000080EDB50BED8080EDB6A170EDB5007E03F
:1018400088D9170EF1D903E1261C01E17ED0160ECE
:10185000DB5016E07ED9300EE66E9FD802E1261CE2
:1018600074E077D9DFCFE6FF9BEC11F0E552E5524B
:10187000E552F4CF26F00001F31C02E1261C65E0DE
:10188000050EDBCF25F0160EDB50D880255409E27B
:10189000050EDBCFE7FF160EDB50E75E050EE7CF48
:1018A000DBFF300EE66E050ECBD94FE1390EDB2A99
:1018B000DBCFE9FF3A0E01E3DB2ADBCFEAFF090EBB
:1018C000EFCFDBFFDB500EE044D9090EADD902E1CA
:1018D000261C3BE0390EDB2ADBCFE9FF3A0EEDE3B5
:1018E000DB2AEBD755D831E1160EDBCFE6FF080E29
:1018F000C3D8E552E7245DD82ED0070EDB50030A8B
:101900001CE0010A14E0030A07E07BD9DBCFEEFFFD
:10191000020EDBCFEDFF1FD0F5D82A6A28AE02D029
:1019200029682A682CD8BCD82AC0EEFF14D0EAD87F
:1019300028BE296824D8B4D80ED063D9DBCFEFFFF6
:101940000AD07BD905E1261C03E1F368F46810D0C6
:10195000FCD801E3DB2A79D94AEF08F0010EDBCF8E
:1019600025F0020EDBCF26F025C0F3FF26C0F4FFE2
:101970003B0EE15C02E2E16AE552E16ECBD029D98F
:10198000020EB0EF0DF061D90800F550DF6E1200C5
:10199000200EE66E080E20EF0EF09BEC11F0E552E3
:1019A000E552E552F3CF25F0F4CF26F00001F31C09
:1019B0001200256E266AD950010F4DD92550EE260A
:1019C0002650ED221200295E000E2A5AF70E29C079
:1019D000DBFFF80E2AC0DBFF29C0E9FF2AC0EAFFBF
:1019E0001200DBCFF4FFF350F45C1200DB50E76E23
:1019F000040EE7CFDBFF12000A0EDBCF25F00B0E43
:101A0000DBCF26F00C0EDBCF27F00D0EDBCF28F05E
:101A100025502610271028101200130EEECFDBFFE2
:101A2000140EEDCFDBFF130EDBCF25F0140EDBCF52
:101A300026F00001800E26141200F70EDBCF29F0ED
:101A4000F80EDBCF2AF01200050EDB50E66ED950FF
:101A5000130F01D9E552E750EE6EED6A12000A0E3F
:101A6000DBCF04F00B0EDBCF05F00C0EDBCF06F066
:101A70000D0EDBCF07F01200DBCFE6FF150EDBCF3C
:101A8000E6FF050EDB50E552E724E552E72412009D
:101A9000DB50CED8010EF36E060EF3CFDBFF120043
:101AA000EE50EFCFEAFFE96E27C0EEFF28C0EEFF51
:101AB00029C0EEFF1200D9CFE6FFDACFE6FFE1CF73
:101AC000D9FFE2CFDAFF1200DFCFE6FFE66A35EC9E
:101AD00013F0E552E552F3501200E76E080EE7CF1F
:101AE000DBFF1200EECF25F0EECF26F0EFCF27F090
:101AF000286A1200050EDBCF25F0150EDB50D880CA
:101B000025541200010EDBCF27F0020EDBCF28F0A8
:101B1000296A1200E552E5CFDAFFE7CFD9FF1200BC
:101B20000A0E25C0DBFF0B0E26C0DBFF1200D950CA
:101B30000A0F2BEF0EF0F36E070EF3CFDBFF120050
:101B4000EECF25F0EFCF26F01200010EDB2A020EB9
:101B50001200FC0EDBCFE6FFFD0EDBCFE6FF12002E
:101B6000255E000E265AF70E25C0DBFFF80E26C0B4
:101B7000DBFF25C0E9FF26C0EAFF1200DA20EA6E8B
:101B8000EF2AEECFF6FF000EEF22EECFF7FFEF22A7
:101B9000EECFF8FF1200040EDBCFE6FF130EDB5092
:101BA000E552E75C9ADFDB5004DF060EDB501200E3
:101BB000090EDB500A0DF350DF24D00FE76E090E3B
:101BC000E7CFDBFFC3EF0CF0DB50F36E050EF1EF58
:101BD0000CF0F70EDBCF25F0F80EDBCF26F012006D
:101BE000DFCFE6FFCDEF0CF028DF030EECDE72EF67
:101BF0000DF01FEC08F0E552E552E552E552000900
:101C00001200BDDEEE50EFCFEAFFE96E010E1200CA
:101C1000130EDB50F36E040EF1EF0CF0040EDB50EC
:101C2000F36E090EF1EF0CF0DBCFE6FFCDEF0CF019
:101C3000E76E050EE7CFDBFF12008BDFF0EF0DF054
:101C4000DBCFE6FF86DFF9EF0DF0D950F90FE96E33
:101C5000FF0EBEEF0DF0E96E000EDA20EA6E120004
:101C60000F9E05D00F9E07AE02D0076C0F8E07C0E7
:101C700001F0006A136A126A860E026E036A5FEF51
:101C800010F00F9E08D00F9E07AE05D0066C071E01
:101C9000E86A07220F8E07C001F006C000F0136A41
:101CA000126A8E0E026E036A5FEF10F00D7E0F6AED
:101CB0009BEC10F0B3EC10F00FB643EF10F00FA256
:101CC0000AD00FAA03D00FBE43EF10F00FA44FEFBE
:101CD00010F04CEF10F00FAA05D00FAC4FEF10F042
:101CE0004CEF10F00FA00AD00FA808D00FBE04D000
:101CF0000FA402D058EF10F05CEF10F0126A036AE4
:101D00000D50085C116E10E305C013F006C000F022
:101D100007C001F008C010F00AC005F00BC006F0C3
:101D20000CC007F00F3A09D00AC013F00BC000F046
:101D30000CC001F00DC010F0116C0F9E0FBC0F8E87
:101D400010C002F00FB08BEF10F01A0E11608BEF85
:101D500010F0026A086A0FA408D0056C061E071E60
:101D6000081EE86A0622072208220FAC08D0136C6E
:101D7000001E011E021EE86A002201220222046ADD
:101D8000115207E008340732063205320432112EB0
:101D9000F9D705501326065000220750012208509B
:101DA000022204C012F00F9E02AE0BD0126C131E62
:101DB000001E011E021EE86A1322002201220222D6
:101DC0000F8E02A006D0D8800132003213321232B8
:101DD000102A10C002F05FEF10F00F6A9BEC10F0B9
:101DE000B3EC10F00FB643EF10F00FA205D00FBA0E
:101DF00043EF10F04AEF10F00FBA56EF10F00FA0BB
:101E000005D00FB843EF10F056EF10F00FB84AEFBF
:101E100010F0036A7F0E0824026EE86A03220D5058
:101E2000025EE86A035A1A0E106E086A126A136A92
:101E3000006A016A0A50055E0B50065A0C50075A98
:101E4000000E085A09E70A5005260B5006220C50CE
:101E50000722000E082201D0128AD89005360636D5
:101E600007360836D8901236133600360136102E53
:101E7000E1D7075006100510D8A4128A5FEF10F0C2
:101E80000F6A9BEC10F0B3EC10F00FB643EF10F0BC
:101E90000FA205D00FB843EF10F04AEF10F00FAAD1
:101EA00005D00FB043EF10F04AEF10F00FB002D0A2
:101EB0000FA802D056EF10F0036A0D500824026EEE
:101EC000E86A03227E0E025EE86A035A126A136A07
:101ED000006A016A0C500702F4CF01F0F3CF00F062
:101EE0000B500702F3501326F4500022000E01227B
:101EF0000C500602F3501326F4500022000E01226B
:101F00000A500702F3501226F4501322000E00224A
:101F100001220B500602F3501226F4501322000E39
:101F2000002201220C500502F3501226F450132215
:101F3000000E002201220A500602F4501226000E62
:101F40001322002201220B500502F4501226000E2B
:101F50001322002201225FEF10F00F6A9BEC10F0B9
:101F60000FB6B7EF0FF00FA20ED00FB405D07F0E53
:101F7000076EFF0E066E1FD0800E076E066A1BD01E
:101F8000076A066A18D00FB0FBD78F0E0860EDD72E
:101F90007E0E0864F5D78E0E085C05E0D8900732F7
:101FA0000632082AF8D70FA406D0066C071EE86A86
:101FB000072207AEE5D71200EEEC0FF00FB6000CCB
:101FC0000FB0000C0FB4000C010CEEEC0FF00FB6CC
:101FD000000C0FB0000C0FA4000C010C0F6A9BEC5E
:101FE00010F0B3EC10F00FB612000FAE08D00FA037
:101FF00004D00FA802D00F8012000F9012000D50D5
:10200000085C0BE10C50075C08E10B50065C05E135
:102010000A50055C02E10F801200D8A002D00F8E9A
:1020200010D008500DC008F00D6E07500CC007F01E
:102030000C6E06500BC006F00B6E05500AC005F082
:102040000A6E0D50085C10E0FF0F09E00F900FB40E
:1020500003D00FAE0F8412000FAE0F9412000D2AA2
:10206000D8900C320B320A320A50055E0B50065AD9
:102070000C50075A07BEEAD7D89005360636073601
:10208000082EF8D7C8D77F0E086EFF0E076E066EB3
:10209000056E12007F0E0FBEFF0E086E02D07F0E7F
:1020A000086E800E076E066A056AF3D70FAE04D07D
:1020B000800E086E076AF7D7086A076AF4D70150DE
:1020C000001013101210F8E003BEF0D701BE0CD0C0
:1020D00002500310EBE0D89012361336003601366A
:1020E0000206D8A00306F2D70350D4E10228D2E0BA
:1020F00012AE11D07F0E121402E113A00CD0132ADD
:10210000E86A0022012207E3D8800132003213324C
:10211000022A0228BFE00250C9E013C005F000C047
:1021200006F00134076E0230086E0732089E0FBEBB
:10213000088E49EF10F00736083602E30F840F7E51
:1021400006E10F80086A076A066A056A1200082815
:1021500003E0D88007321200D890073202E10F82E4
:1021600012000F8612000C360D3602E30F8C0F7E24
:1021700006E10F880D6A0C6A0B6A0A6A12000D28C4
:1021800003E0D8800C321200D8900C32EAE10F8ABA
:10219000120007C013F006C012F006500B02F4CF75
:1021A00005F0F3CF04F007500C02F4CF07F0F3CFA3
:1021B00006F00B02F3500526F4500622E86A0722C7
:1021C00012500C02F3500526F4500622E86A07224A
:1021D0000CAEEFEF10F01250065E1350075A13AE1C
:0C21E000000C0B50065E0C50075A000C5F
:0421EC00D9CFE6FF62
:1021F000DACFE6FFE1CFD9FFE2CFDAFFE652E652CF
:10220000E652E652D950F90F256EFF0EDA20266EFF
:10221000020E25C0DBFF030E26C0DBFF020EDBCF64
:10222000E6FF030EDBCFE6FFF90EDBCFE6FFFA0E8B
:10223000DBCFE6FFFB0EDBCFE6FFD950FC0FE66EEF
:10224000FF0EDA20E66E35EC08F0256E070EE15C35
:1022500002E2E16AE552E16E2550F3CFDEFFF4CFF2
:10226000DDFFFC0EDBCFE9FFFD0EDBCFEAFFEF6AFF
:10227000DECF25F0DDCF26F025C0F3FF26C0F4FF2A
:10228000040EE15C02E2E16AE552E16EE552E5CF5F
:08229000DAFFE7CFD9FF1200CD
:082298001E0EF66E000EF76E3B
:1022A000000EF86E01010900F550DD6F0900F550D0
:1022B000DE6F03E1DD6701D03DD00900F550D86F36
:1022C0000900F550D96F0900F550DA6F09000900CF
:1022D000F550E96E0900F550EA6E090009000900A1
:1022E000F550DB6F0900F550DC6F09000900F6CFEF
:1022F000DFF1F7CFE0F1F8CFE1F1D8C1F6FFD9C1B6
:10230000F7FFDAC1F8FF0101DB5302E1DC5307E01C
:102310000900F550EE6EDB07F8E2DC07F9D7DFC104
:10232000F6FFE0C1F7FFE1C1F8FF0101DD07000E94
:06233000DE5BBFD71200C6
:0A233600D9CFE6FFDACFE6FFE1CFD2
:10234000D9FFE2CFDAFFFB0EDBCF25F0FC0EDBCFAF
:1023500026F00001800E26141AE1FB0EDBCFE9FF08
:10236000FC0EDBCFEAFFEECFF3FFEDCFF4FFEE2A5A
:10237000000EEF22F3CFE9FFF4CFEAFFFD0EDBCF33
:10238000EFFFEF50266AF36E26C0F4FF10D0FB0E6D
:10239000DB50FE0806E1FD0EDBCFE6FF65EC13F037
:1023A00005D0FD0EDBCFE6FF03EC00F0E552E55271
:0A23B000E5CFDAFFE7CFD9FF1200F6
:0623BA0004500902F3CFFC
:1023C00000F0F4CF01F00A02F3500126000EF420D1
:1023D000026E04500B02F3500226000EF420036E2E
:1023E00004500C02F350032605500902F350012655
:1023F000F4500222000E032205500A02F350022676
:10240000F450032205500B02F35003260650090234
:10241000F3500226F450032206500A02F35003261A
:0A24200007500902F35003261200D2
:06242A00FE0EE3CFE9FF06
:10243000FF0EE3CFEAFFF36AF46AEE5203E0F34AD9
:10244000F42AFBD71200FF0EE3CFF8FFE552FF0E90
:10245000E3CFF7FFE552FF0EE3CFF6FFE552E66A62
:10246000E66AE66A0900F55209E0FD0EE32A05E195
:10247000FE0EE32A02E1FF0EE32AF4D7FD0EE3CFBE
:1024800005F0FE0EE3CF06F0FF0EE3CF07F01200DB
:10249000D9CFE6FFDACFE6FFE1CFD9FFE2CFDAFF0F
:1024A000E652DF6AFF0EE76EFC0EDBCF25F0E75049
:1024B00025162550A96EFB0EDB50A86EA69EA69C85
:1024C000A684F250800B01E0010EDF6EF29E550EE5
:1024D000A76EAA0EA76EA682A6B2FED7DF50E8B0FE
:1024E000F28EE8A0F29EA694E552E552E5CFDAFF1F
:0624F000E7CFD9FF120046
:0A24F600D9CFE6FFDACFE6FFE1CF11
:10250000D9FFE2CFDAFFE652E652D950FD0F256E31
:10251000FF0EDA2025C0DEFFDD6EDECFE9FFDDCF66
:10252000EAFFEF9EFA0EDBCF25F0FB0EDBCF26F0A5
:10253000FC0EDBCF27F0FD0EDBCF28F025C004F02A
:1025400026C005F027C006F028C007F0E552E55286
:0C255000E552E5CFDAFFE7CFD9FF12001B
:04255C00036A026AA2
:10256000016A006A200EE76ED890043605360636FA
:10257000073600360136023603360950005C0A5031
:1025800001580B5002580C50035809E30950005EE3
:102590000A50015A0B50025A0C50035A042AE72ED3
:0425A000E4D712006A
:0C25A400D9CFE6FFDACFE6FFE1CFD9FF88
:1025B000E2CFDAFFFF0EE76EFC0EDBCF25F0FD0E5B
:1025C000DBCF26F0E7502516266A2550A96EA69C7B
:1025D000A69EA68000000000A85000D0E552E5CFDE
:0825E000DAFFE7CFD9FF12007A
:0825E800FF0EE350316EEF0E0F
:1025F00001D0F30EE76EE72EFBEF12F00C0E306EFB
:10260000E76AE72E01EF13F0302E00EF13F0312EC2
:06261000F9EF12F01200C8
:0A261600D9CFE6FFDACFE6FFE1CFEF
:10262000D9FFE2CFDAFFACAC04D0AC900101E2B349
:10263000AC80FD0EDB50AD6EE552E5CFDAFFE7CFA3
:04264000D9FF1200AC
:0C26440041544150312C57522C41432C82
:10265000434E0D0041544244340D0041544D592520
:09266000640D002B2B2B00580027
:06266A00F36AF46AFF0EA2
:10267000E124E96EFF0EE220EA6EED6607D02F0E30
:0E268000EF6404D03A0EEF6001D0F32A12008E
:02268E00000E3C
:10269000F36E00EE00F0080E01D81200EA6002D0DE
:0E26A000EE6AFCD7F350E9601200EE6AFCD738
:0226AE0013EE29
:1026B00000F023EE00F0F86A0F9C4CEC11F007ECF0
:0A26C00000F0FCEC02F0FBD7120062
:0626CA00FF0EE350ACBA64
:1026D00004D0AF6AAB8EAC8A949CACA2FED7AD6E30
:0626E000F36EF46A120023
:0A26E60030313233343536373839DD
:0726F000616263646566008E
:0926F700000000000000000000DA
:0727000000000000000000D2
:020000040030CA
:0100000024DB
:0100010008F6
:0100020038C5
:010003001EDE
:010005008179
:010006008178
:010008000FE8
:01000900C036
:01000A000FE6
:01000B00E014
:01000C000FE4
:01000D0040B2
:00000001FF
